{
  "_format": "hh-sol-artifact-1",
  "contractName": "HouseNFT",
  "sourceName": "contracts/HouseNFT.sol",
  "abi": [
    {
      "inputs": [],
      "stateMutability": "nonpayable",
      "type": "constructor"
    },
    {
      "inputs": [
        {
          "internalType": "address",
          "name": "sender",
          "type": "address"
        },
        {
          "internalType": "uint256",
          "name": "tokenId",
          "type": "uint256"
        },
        {
          "internalType": "address",
          "name": "owner",
          "type": "address"
        }
      ],
      "name": "ERC721IncorrectOwner",
      "type": "error"
    },
    {
      "inputs": [
        {
          "internalType": "address",
          "name": "operator",
          "type": "address"
        },
        {
          "internalType": "uint256",
          "name": "tokenId",
          "type": "uint256"
        }
      ],
      "name": "ERC721InsufficientApproval",
      "type": "error"
    },
    {
      "inputs": [
        {
          "internalType": "address",
          "name": "approver",
          "type": "address"
        }
      ],
      "name": "ERC721InvalidApprover",
      "type": "error"
    },
    {
      "inputs": [
        {
          "internalType": "address",
          "name": "operator",
          "type": "address"
        }
      ],
      "name": "ERC721InvalidOperator",
      "type": "error"
    },
    {
      "inputs": [
        {
          "internalType": "address",
          "name": "owner",
          "type": "address"
        }
      ],
      "name": "ERC721InvalidOwner",
      "type": "error"
    },
    {
      "inputs": [
        {
          "internalType": "address",
          "name": "receiver",
          "type": "address"
        }
      ],
      "name": "ERC721InvalidReceiver",
      "type": "error"
    },
    {
      "inputs": [
        {
          "internalType": "address",
          "name": "sender",
          "type": "address"
        }
      ],
      "name": "ERC721InvalidSender",
      "type": "error"
    },
    {
      "inputs": [
        {
          "internalType": "uint256",
          "name": "tokenId",
          "type": "uint256"
        }
      ],
      "name": "ERC721NonexistentToken",
      "type": "error"
    },
    {
      "anonymous": false,
      "inputs": [
        {
          "indexed": true,
          "internalType": "address",
          "name": "owner",
          "type": "address"
        },
        {
          "indexed": true,
          "internalType": "address",
          "name": "approved",
          "type": "address"
        },
        {
          "indexed": true,
          "internalType": "uint256",
          "name": "tokenId",
          "type": "uint256"
        }
      ],
      "name": "Approval",
      "type": "event"
    },
    {
      "anonymous": false,
      "inputs": [
        {
          "indexed": true,
          "internalType": "address",
          "name": "owner",
          "type": "address"
        },
        {
          "indexed": true,
          "internalType": "address",
          "name": "operator",
          "type": "address"
        },
        {
          "indexed": false,
          "internalType": "bool",
          "name": "approved",
          "type": "bool"
        }
      ],
      "name": "ApprovalForAll",
      "type": "event"
    },
    {
      "anonymous": false,
      "inputs": [
        {
          "indexed": true,
          "internalType": "address",
          "name": "from",
          "type": "address"
        },
        {
          "indexed": true,
          "internalType": "address",
          "name": "to",
          "type": "address"
        },
        {
          "indexed": true,
          "internalType": "uint256",
          "name": "tokenId",
          "type": "uint256"
        }
      ],
      "name": "Transfer",
      "type": "event"
    },
    {
      "inputs": [
        {
          "internalType": "address",
          "name": "to",
          "type": "address"
        },
        {
          "internalType": "uint256",
          "name": "tokenId",
          "type": "uint256"
        }
      ],
      "name": "approve",
      "outputs": [],
      "stateMutability": "nonpayable",
      "type": "function"
    },
    {
      "inputs": [
        {
          "internalType": "address",
          "name": "owner",
          "type": "address"
        }
      ],
      "name": "balanceOf",
      "outputs": [
        {
          "internalType": "uint256",
          "name": "",
          "type": "uint256"
        }
      ],
      "stateMutability": "view",
      "type": "function"
    },
    {
      "inputs": [
        {
          "internalType": "uint256",
          "name": "tokenId",
          "type": "uint256"
        }
      ],
      "name": "buyHouse",
      "outputs": [],
      "stateMutability": "payable",
      "type": "function"
    },
    {
      "inputs": [
        {
          "internalType": "uint256",
          "name": "tokenId",
          "type": "uint256"
        }
      ],
      "name": "delistHouse",
      "outputs": [],
      "stateMutability": "nonpayable",
      "type": "function"
    },
    {
      "inputs": [],
      "name": "getAllListings",
      "outputs": [
        {
          "internalType": "uint256[]",
          "name": "",
          "type": "uint256[]"
        },
        {
          "internalType": "uint256[]",
          "name": "",
          "type": "uint256[]"
        },
        {
          "internalType": "address[]",
          "name": "",
          "type": "address[]"
        }
      ],
      "stateMutability": "view",
      "type": "function"
    },
    {
      "inputs": [
        {
          "internalType": "uint256",
          "name": "tokenId",
          "type": "uint256"
        }
      ],
      "name": "getApproved",
      "outputs": [
        {
          "internalType": "address",
          "name": "",
          "type": "address"
        }
      ],
      "stateMutability": "view",
      "type": "function"
    },
    {
      "inputs": [
        {
          "internalType": "uint256",
          "name": "tokenId",
          "type": "uint256"
        }
      ],
      "name": "getHouseOwner",
      "outputs": [
        {
          "internalType": "address",
          "name": "",
          "type": "address"
        }
      ],
      "stateMutability": "view",
      "type": "function"
    },
    {
      "inputs": [
        {
          "internalType": "address",
          "name": "owner",
          "type": "address"
        }
      ],
      "name": "getHousesByOwner",
      "outputs": [
        {
          "internalType": "uint256[]",
          "name": "",
          "type": "uint256[]"
        }
      ],
      "stateMutability": "view",
      "type": "function"
    },
    {
      "inputs": [
        {
          "internalType": "address",
          "name": "owner",
          "type": "address"
        },
        {
          "internalType": "address",
          "name": "operator",
          "type": "address"
        }
      ],
      "name": "isApprovedForAll",
      "outputs": [
        {
          "internalType": "bool",
          "name": "",
          "type": "bool"
        }
      ],
      "stateMutability": "view",
      "type": "function"
    },
    {
      "inputs": [
        {
          "internalType": "uint256",
          "name": "tokenId",
          "type": "uint256"
        },
        {
          "internalType": "uint256",
          "name": "price",
          "type": "uint256"
        }
      ],
      "name": "listHouse",
      "outputs": [],
      "stateMutability": "nonpayable",
      "type": "function"
    },
    {
      "inputs": [
        {
          "internalType": "uint256",
          "name": "",
          "type": "uint256"
        }
      ],
      "name": "listings",
      "outputs": [
        {
          "internalType": "uint256",
          "name": "price",
          "type": "uint256"
        },
        {
          "internalType": "address",
          "name": "seller",
          "type": "address"
        },
        {
          "internalType": "uint256",
          "name": "timestamp",
          "type": "uint256"
        },
        {
          "internalType": "bool",
          "name": "isForSale",
          "type": "bool"
        }
      ],
      "stateMutability": "view",
      "type": "function"
    },
    {
      "inputs": [
        {
          "internalType": "address",
          "name": "recipient",
          "type": "address"
        }
      ],
      "name": "mintHouse",
      "outputs": [],
      "stateMutability": "nonpayable",
      "type": "function"
    },
    {
      "inputs": [],
      "name": "name",
      "outputs": [
        {
          "internalType": "string",
          "name": "",
          "type": "string"
        }
      ],
      "stateMutability": "view",
      "type": "function"
    },
    {
      "inputs": [
        {
          "internalType": "uint256",
          "name": "tokenId",
          "type": "uint256"
        }
      ],
      "name": "ownerOf",
      "outputs": [
        {
          "internalType": "address",
          "name": "",
          "type": "address"
        }
      ],
      "stateMutability": "view",
      "type": "function"
    },
    {
      "inputs": [],
      "name": "platformFeeRate",
      "outputs": [
        {
          "internalType": "uint256",
          "name": "",
          "type": "uint256"
        }
      ],
      "stateMutability": "view",
      "type": "function"
    },
    {
      "inputs": [],
      "name": "platformOwner",
      "outputs": [
        {
          "internalType": "address",
          "name": "",
          "type": "address"
        }
      ],
      "stateMutability": "view",
      "type": "function"
    },
    {
      "inputs": [
        {
          "internalType": "address",
          "name": "from",
          "type": "address"
        },
        {
          "internalType": "address",
          "name": "to",
          "type": "address"
        },
        {
          "internalType": "uint256",
          "name": "tokenId",
          "type": "uint256"
        }
      ],
      "name": "safeTransferFrom",
      "outputs": [],
      "stateMutability": "nonpayable",
      "type": "function"
    },
    {
      "inputs": [
        {
          "internalType": "address",
          "name": "from",
          "type": "address"
        },
        {
          "internalType": "address",
          "name": "to",
          "type": "address"
        },
        {
          "internalType": "uint256",
          "name": "tokenId",
          "type": "uint256"
        },
        {
          "internalType": "bytes",
          "name": "data",
          "type": "bytes"
        }
      ],
      "name": "safeTransferFrom",
      "outputs": [],
      "stateMutability": "nonpayable",
      "type": "function"
    },
    {
      "inputs": [
        {
          "internalType": "address",
          "name": "operator",
          "type": "address"
        },
        {
          "internalType": "bool",
          "name": "approved",
          "type": "bool"
        }
      ],
      "name": "setApprovalForAll",
      "outputs": [],
      "stateMutability": "nonpayable",
      "type": "function"
    },
    {
      "inputs": [
        {
          "internalType": "uint256",
          "name": "newRate",
          "type": "uint256"
        }
      ],
      "name": "setPlatformFeeRate",
      "outputs": [],
      "stateMutability": "nonpayable",
      "type": "function"
    },
    {
      "inputs": [
        {
          "internalType": "bytes4",
          "name": "interfaceId",
          "type": "bytes4"
        }
      ],
      "name": "supportsInterface",
      "outputs": [
        {
          "internalType": "bool",
          "name": "",
          "type": "bool"
        }
      ],
      "stateMutability": "view",
      "type": "function"
    },
    {
      "inputs": [],
      "name": "symbol",
      "outputs": [
        {
          "internalType": "string",
          "name": "",
          "type": "string"
        }
      ],
      "stateMutability": "view",
      "type": "function"
    },
    {
      "inputs": [
        {
          "internalType": "uint256",
          "name": "tokenId",
          "type": "uint256"
        }
      ],
      "name": "tokenURI",
      "outputs": [
        {
          "internalType": "string",
          "name": "",
          "type": "string"
        }
      ],
      "stateMutability": "view",
      "type": "function"
    },
    {
      "inputs": [
        {
          "internalType": "address",
          "name": "from",
          "type": "address"
        },
        {
          "internalType": "address",
          "name": "to",
          "type": "address"
        },
        {
          "internalType": "uint256",
          "name": "tokenId",
          "type": "uint256"
        }
      ],
      "name": "transferFrom",
      "outputs": [],
      "stateMutability": "nonpayable",
      "type": "function"
    }
  ],
  "bytecode": "0x608060405260056008553480156200001657600080fd5b506040518060400160405280600881526020017f486f7573654e46540000000000000000000000000000000000000000000000008152506040518060400160405280600481526020017f484e46540000000000000000000000000000000000000000000000000000000081525081600090816200009491906200036a565b508060019081620000a691906200036a565b50505033600760006101000a81548173ffffffffffffffffffffffffffffffffffffffff021916908373ffffffffffffffffffffffffffffffffffffffff16021790555062000451565b600081519050919050565b7f4e487b7100000000000000000000000000000000000000000000000000000000600052604160045260246000fd5b7f4e487b7100000000000000000000000000000000000000000000000000000000600052602260045260246000fd5b600060028204905060018216806200017257607f821691505b6020821081036200018857620001876200012a565b5b50919050565b60008190508160005260206000209050919050565b60006020601f8301049050919050565b600082821b905092915050565b600060088302620001f27fffffffffffffffffffffffffffffffffffffffffffffffffffffffffffffffff82620001b3565b620001fe8683620001b3565b95508019841693508086168417925050509392505050565b6000819050919050565b6000819050919050565b60006200024b620002456200023f8462000216565b62000220565b62000216565b9050919050565b6000819050919050565b62000267836200022a565b6200027f620002768262000252565b848454620001c0565b825550505050565b600090565b6200029662000287565b620002a38184846200025c565b505050565b5b81811015620002cb57620002bf6000826200028c565b600181019050620002a9565b5050565b601f8211156200031a57620002e4816200018e565b620002ef84620001a3565b81016020851015620002ff578190505b620003176200030e85620001a3565b830182620002a8565b50505b505050565b600082821c905092915050565b60006200033f600019846008026200031f565b1980831691505092915050565b60006200035a83836200032c565b9150826002028217905092915050565b6200037582620000f0565b67ffffffffffffffff811115620003915762000390620000fb565b5b6200039d825462000159565b620003aa828285620002cf565b600060209050601f831160018114620003e25760008415620003cd578287015190505b620003d985826200034c565b86555062000449565b601f198416620003f2866200018e565b60005b828110156200041c57848901518255600182019150602085019450602081019050620003f5565b868310156200043c578489015162000438601f8916826200032c565b8355505b6001600288020188555050505b505050505050565b61340980620004616000396000f3fe60806040526004361061014b5760003560e01c806395d89b41116100b6578063c87b56dd1161006f578063c87b56dd146104a0578063de74e57b146104dd578063e7e95ada1461051d578063e985e9c51461055a578063eddc426914610597578063eeca08f0146105b35761014b565b806395d89b41146103a45780639946f084146103cf57806399b23178146103f8578063a22cb46514610421578063ae73ccec1461044a578063b88d4fde146104775761014b565b806342842e0e1161010857806342842e0e146102705780634df8ccb1146102995780636352211e146102c457806370a082311461030157806375e6c7091461033e578063927fef2e1461037b5761014b565b806301ffc9a71461015057806306fdde031461018d578063081812fc146101b8578063095ea7b3146101f557806323b872dd1461021e5780633c3b0b4a14610247575b600080fd5b34801561015c57600080fd5b50610177600480360381019061017291906124d7565b6105de565b604051610184919061251f565b60405180910390f35b34801561019957600080fd5b506101a26106c0565b6040516101af91906125ca565b60405180910390f35b3480156101c457600080fd5b506101df60048036038101906101da9190612622565b610752565b6040516101ec9190612690565b60405180910390f35b34801561020157600080fd5b5061021c600480360381019061021791906126d7565b61076e565b005b34801561022a57600080fd5b5061024560048036038101906102409190612717565b610784565b005b34801561025357600080fd5b5061026e60048036038101906102699190612622565b610886565b005b34801561027c57600080fd5b5061029760048036038101906102929190612717565b61095c565b005b3480156102a557600080fd5b506102ae61097c565b6040516102bb9190612690565b60405180910390f35b3480156102d057600080fd5b506102eb60048036038101906102e69190612622565b6109a2565b6040516102f89190612690565b60405180910390f35b34801561030d57600080fd5b506103286004803603810190610323919061276a565b6109b4565b60405161033591906127a6565b60405180910390f35b34801561034a57600080fd5b506103656004803603810190610360919061276a565b610a6e565b604051610372919061287f565b60405180910390f35b34801561038757600080fd5b506103a2600480360381019061039d9190612622565b610b61565b005b3480156103b057600080fd5b506103b9610bfb565b6040516103c691906125ca565b60405180910390f35b3480156103db57600080fd5b506103f660048036038101906103f1919061276a565b610c8d565b005b34801561040457600080fd5b5061041f600480360381019061041a91906128a1565b610d4c565b005b34801561042d57600080fd5b506104486004803603810190610443919061290d565b610ef5565b005b34801561045657600080fd5b5061045f610f0b565b60405161046e93929190612a0b565b60405180910390f35b34801561048357600080fd5b5061049e60048036038101906104999190612b8c565b61119c565b005b3480156104ac57600080fd5b506104c760048036038101906104c29190612622565b6111c1565b6040516104d491906125ca565b60405180910390f35b3480156104e957600080fd5b5061050460048036038101906104ff9190612622565b61122a565b6040516105149493929190612c0f565b60405180910390f35b34801561052957600080fd5b50610544600480360381019061053f9190612622565b611287565b6040516105519190612690565b60405180910390f35b34801561056657600080fd5b50610581600480360381019061057c9190612c54565b611299565b60405161058e919061251f565b60405180910390f35b6105b160048036038101906105ac9190612622565b61132d565b005b3480156105bf57600080fd5b506105c86115bd565b6040516105d591906127a6565b60405180910390f35b60007f80ac58cd000000000000000000000000000000000000000000000000000000007bffffffffffffffffffffffffffffffffffffffffffffffffffffffff1916827bffffffffffffffffffffffffffffffffffffffffffffffffffffffff191614806106a957507f5b5e139f000000000000000000000000000000000000000000000000000000007bffffffffffffffffffffffffffffffffffffffffffffffffffffffff1916827bffffffffffffffffffffffffffffffffffffffffffffffffffffffff1916145b806106b957506106b8826115c3565b5b9050919050565b6060600080546106cf90612cc3565b80601f01602080910402602001604051908101604052809291908181526020018280546106fb90612cc3565b80156107485780601f1061071d57610100808354040283529160200191610748565b820191906000526020600020905b81548152906001019060200180831161072b57829003601f168201915b5050505050905090565b600061075d8261162d565b50610767826116b5565b9050919050565b610780828261077b6116f2565b6116fa565b5050565b600073ffffffffffffffffffffffffffffffffffffffff168273ffffffffffffffffffffffffffffffffffffffff16036107f65760006040517f64a0ae920000000000000000000000000000000000000000000000000000000081526004016107ed9190612690565b60405180910390fd5b600061080a83836108056116f2565b61170c565b90508373ffffffffffffffffffffffffffffffffffffffff168173ffffffffffffffffffffffffffffffffffffffff1614610880578382826040517f64283d7b00000000000000000000000000000000000000000000000000000000815260040161087793929190612cf4565b60405180910390fd5b50505050565b3373ffffffffffffffffffffffffffffffffffffffff166009600083815260200190815260200160002060010160009054906101000a900473ffffffffffffffffffffffffffffffffffffffff1673ffffffffffffffffffffffffffffffffffffffff161461092a576040517f08c379a000000000000000000000000000000000000000000000000000000000815260040161092190612d9d565b60405180910390fd5b60006009600083815260200190815260200160002060030160006101000a81548160ff02191690831515021790555050565b6109778383836040518060200160405280600081525061119c565b505050565b600760009054906101000a900473ffffffffffffffffffffffffffffffffffffffff1681565b60006109ad8261162d565b9050919050565b60008073ffffffffffffffffffffffffffffffffffffffff168273ffffffffffffffffffffffffffffffffffffffff1603610a275760006040517f89c62b64000000000000000000000000000000000000000000000000000000008152600401610a1e9190612690565b60405180910390fd5b600360008373ffffffffffffffffffffffffffffffffffffffff1673ffffffffffffffffffffffffffffffffffffffff168152602001908152602001600020549050919050565b60606000610a7b836109b4565b905060008167ffffffffffffffff811115610a9957610a98612a61565b5b604051908082528060200260200182016040528015610ac75781602001602082028036833780820191505090505b5090506000805b600654811015610b55578573ffffffffffffffffffffffffffffffffffffffff16610af8826109a2565b73ffffffffffffffffffffffffffffffffffffffff1603610b425780838381518110610b2757610b26612dbd565b5b6020026020010181815250508180610b3e90612e1b565b9250505b8080610b4d90612e1b565b915050610ace565b50819350505050919050565b600760009054906101000a900473ffffffffffffffffffffffffffffffffffffffff1673ffffffffffffffffffffffffffffffffffffffff163373ffffffffffffffffffffffffffffffffffffffff1614610bf1576040517f08c379a0000000000000000000000000000000000000000000000000000000008152600401610be890612ed5565b60405180910390fd5b8060088190555050565b606060018054610c0a90612cc3565b80601f0160208091040260200160405190810160405280929190818152602001828054610c3690612cc3565b8015610c835780601f10610c5857610100808354040283529160200191610c83565b820191906000526020600020905b815481529060010190602001808311610c6657829003601f168201915b5050505050905090565b600760009054906101000a900473ffffffffffffffffffffffffffffffffffffffff1673ffffffffffffffffffffffffffffffffffffffff163373ffffffffffffffffffffffffffffffffffffffff1614610d1d576040517f08c379a0000000000000000000000000000000000000000000000000000000008152600401610d1490612f41565b60405180910390fd5b60006006549050610d2e8282611926565b600160066000828254610d419190612f61565b925050819055505050565b3373ffffffffffffffffffffffffffffffffffffffff16610d6c836109a2565b73ffffffffffffffffffffffffffffffffffffffff1614610dc2576040517f08c379a0000000000000000000000000000000000000000000000000000000008152600401610db990613007565b60405180910390fd5b6009600083815260200190815260200160002060030160009054906101000a900460ff1615610e26576040517f08c379a0000000000000000000000000000000000000000000000000000000008152600401610e1d90613073565b60405180910390fd5b60405180608001604052808281526020013373ffffffffffffffffffffffffffffffffffffffff16815260200142815260200160011515815250600960008481526020019081526020016000206000820151816000015560208201518160010160006101000a81548173ffffffffffffffffffffffffffffffffffffffff021916908373ffffffffffffffffffffffffffffffffffffffff1602179055506040820151816002015560608201518160030160006101000a81548160ff0219169083151502179055509050505050565b610f07610f006116f2565b8383611a1f565b5050565b6060806060600060065490506000805b82811015610f6e576009600082815260200190815260200160002060030160009054906101000a900460ff1615610f5b578180610f5790612e1b565b9250505b8080610f6690612e1b565b915050610f1b565b5060008167ffffffffffffffff811115610f8b57610f8a612a61565b5b604051908082528060200260200182016040528015610fb95781602001602082028036833780820191505090505b50905060008267ffffffffffffffff811115610fd857610fd7612a61565b5b6040519080825280602002602001820160405280156110065781602001602082028036833780820191505090505b50905060008367ffffffffffffffff81111561102557611024612a61565b5b6040519080825280602002602001820160405280156110535781602001602082028036833780820191505090505b5090506000805b86811015611187576009600082815260200190815260200160002060030160009054906101000a900460ff1615611174578085838151811061109f5761109e612dbd565b5b60200260200101818152505060096000828152602001908152602001600020600001548483815181106110d5576110d4612dbd565b5b6020026020010181815250506009600082815260200190815260200160002060010160009054906101000a900473ffffffffffffffffffffffffffffffffffffffff1683838151811061112b5761112a612dbd565b5b602002602001019073ffffffffffffffffffffffffffffffffffffffff16908173ffffffffffffffffffffffffffffffffffffffff1681525050818061117090612e1b565b9250505b808061117f90612e1b565b91505061105a565b50838383985098509850505050505050909192565b6111a7848484610784565b6111bb6111b26116f2565b85858585611b8e565b50505050565b60606111cc8261162d565b5060006111d7611d3f565b905060008151116111f75760405180602001604052806000815250611222565b8061120184611d56565b6040516020016112129291906130cf565b6040516020818303038152906040525b915050919050565b60096020528060005260406000206000915090508060000154908060010160009054906101000a900473ffffffffffffffffffffffffffffffffffffffff16908060020154908060030160009054906101000a900460ff16905084565b6000611292826109a2565b9050919050565b6000600560008473ffffffffffffffffffffffffffffffffffffffff1673ffffffffffffffffffffffffffffffffffffffff16815260200190815260200160002060008373ffffffffffffffffffffffffffffffffffffffff1673ffffffffffffffffffffffffffffffffffffffff16815260200190815260200160002060009054906101000a900460ff16905092915050565b600060096000838152602001908152602001600020604051806080016040529081600082015481526020016001820160009054906101000a900473ffffffffffffffffffffffffffffffffffffffff1673ffffffffffffffffffffffffffffffffffffffff1673ffffffffffffffffffffffffffffffffffffffff168152602001600282015481526020016003820160009054906101000a900460ff16151515158152505090508060600151611418576040517f08c379a000000000000000000000000000000000000000000000000000000000815260040161140f9061313f565b60405180910390fd5b806000015134101561145f576040517f08c379a0000000000000000000000000000000000000000000000000000000008152600401611456906131d1565b60405180910390fd5b600081604001514261147191906131f1565b9050600062015180606484600001516008548561148e9190613225565b6114989190613225565b6114a29190613296565b6114ac9190613296565b90506000836020015190506114c2813387611e24565b60008285600001516114d491906131f1565b90508173ffffffffffffffffffffffffffffffffffffffff166108fc829081150290604051600060405180830381858888f1935050505015801561151c573d6000803e3d6000fd5b50600760009054906101000a900473ffffffffffffffffffffffffffffffffffffffff1673ffffffffffffffffffffffffffffffffffffffff166108fc849081150290604051600060405180830381858888f19350505050158015611585573d6000803e3d6000fd5b5060006009600088815260200190815260200160002060030160006101000a81548160ff021916908315150217905550505050505050565b60085481565b60007f01ffc9a7000000000000000000000000000000000000000000000000000000007bffffffffffffffffffffffffffffffffffffffffffffffffffffffff1916827bffffffffffffffffffffffffffffffffffffffffffffffffffffffff1916149050919050565b60008061163983611f91565b9050600073ffffffffffffffffffffffffffffffffffffffff168173ffffffffffffffffffffffffffffffffffffffff16036116ac57826040517f7e2732890000000000000000000000000000000000000000000000000000000081526004016116a391906127a6565b60405180910390fd5b80915050919050565b60006004600083815260200190815260200160002060009054906101000a900473ffffffffffffffffffffffffffffffffffffffff169050919050565b600033905090565b6117078383836001611fce565b505050565b60008061171884611f91565b9050600073ffffffffffffffffffffffffffffffffffffffff168373ffffffffffffffffffffffffffffffffffffffff161461175a57611759818486612193565b5b600073ffffffffffffffffffffffffffffffffffffffff168173ffffffffffffffffffffffffffffffffffffffff16146117eb5761179c600085600080611fce565b6001600360008373ffffffffffffffffffffffffffffffffffffffff1673ffffffffffffffffffffffffffffffffffffffff168152602001908152602001600020600082825403925050819055505b600073ffffffffffffffffffffffffffffffffffffffff168573ffffffffffffffffffffffffffffffffffffffff161461186e576001600360008773ffffffffffffffffffffffffffffffffffffffff1673ffffffffffffffffffffffffffffffffffffffff168152602001908152602001600020600082825401925050819055505b846002600086815260200190815260200160002060006101000a81548173ffffffffffffffffffffffffffffffffffffffff021916908373ffffffffffffffffffffffffffffffffffffffff160217905550838573ffffffffffffffffffffffffffffffffffffffff168273ffffffffffffffffffffffffffffffffffffffff167fddf252ad1be2c89b69c2b068fc378daa952ba7f163c4a11628f55a4df523b3ef60405160405180910390a4809150509392505050565b600073ffffffffffffffffffffffffffffffffffffffff168273ffffffffffffffffffffffffffffffffffffffff16036119985760006040517f64a0ae9200000000000000000000000000000000000000000000000000000000815260040161198f9190612690565b60405180910390fd5b60006119a68383600061170c565b9050600073ffffffffffffffffffffffffffffffffffffffff168173ffffffffffffffffffffffffffffffffffffffff1614611a1a5760006040517f73c6ac6e000000000000000000000000000000000000000000000000000000008152600401611a119190612690565b60405180910390fd5b505050565b600073ffffffffffffffffffffffffffffffffffffffff168273ffffffffffffffffffffffffffffffffffffffff1603611a9057816040517f5b08ba18000000000000000000000000000000000000000000000000000000008152600401611a879190612690565b60405180910390fd5b80600560008573ffffffffffffffffffffffffffffffffffffffff1673ffffffffffffffffffffffffffffffffffffffff16815260200190815260200160002060008473ffffffffffffffffffffffffffffffffffffffff1673ffffffffffffffffffffffffffffffffffffffff16815260200190815260200160002060006101000a81548160ff0219169083151502179055508173ffffffffffffffffffffffffffffffffffffffff168373ffffffffffffffffffffffffffffffffffffffff167f17307eab39ab6107e8899845ad3d59bd9653f200f220920489ca2b5937696c3183604051611b81919061251f565b60405180910390a3505050565b60008373ffffffffffffffffffffffffffffffffffffffff163b1115611d38578273ffffffffffffffffffffffffffffffffffffffff1663150b7a02868685856040518563ffffffff1660e01b8152600401611bed949392919061331c565b6020604051808303816000875af1925050508015611c2957506040513d601f19601f82011682018060405250810190611c26919061337d565b60015b611cad573d8060008114611c59576040519150601f19603f3d011682016040523d82523d6000602084013e611c5e565b606091505b506000815103611ca557836040517f64a0ae92000000000000000000000000000000000000000000000000000000008152600401611c9c9190612690565b60405180910390fd5b805181602001fd5b63150b7a0260e01b7bffffffffffffffffffffffffffffffffffffffffffffffffffffffff1916817bffffffffffffffffffffffffffffffffffffffffffffffffffffffff191614611d3657836040517f64a0ae92000000000000000000000000000000000000000000000000000000008152600401611d2d9190612690565b60405180910390fd5b505b5050505050565b606060405180602001604052806000815250905090565b606060006001611d6584612257565b01905060008167ffffffffffffffff811115611d8457611d83612a61565b5b6040519080825280601f01601f191660200182016040528015611db65781602001600182028036833780820191505090505b509050600082602001820190505b600115611e19578080600190039150507f3031323334353637383961626364656600000000000000000000000000000000600a86061a8153600a8581611e0d57611e0c613267565b5b04945060008503611dc4575b819350505050919050565b600073ffffffffffffffffffffffffffffffffffffffff168273ffffffffffffffffffffffffffffffffffffffff1603611e965760006040517f64a0ae92000000000000000000000000000000000000000000000000000000008152600401611e8d9190612690565b60405180910390fd5b6000611ea48383600061170c565b9050600073ffffffffffffffffffffffffffffffffffffffff168173ffffffffffffffffffffffffffffffffffffffff1603611f1757816040517f7e273289000000000000000000000000000000000000000000000000000000008152600401611f0e91906127a6565b60405180910390fd5b8373ffffffffffffffffffffffffffffffffffffffff168173ffffffffffffffffffffffffffffffffffffffff1614611f8b578382826040517f64283d7b000000000000000000000000000000000000000000000000000000008152600401611f8293929190612cf4565b60405180910390fd5b50505050565b60006002600083815260200190815260200160002060009054906101000a900473ffffffffffffffffffffffffffffffffffffffff169050919050565b80806120075750600073ffffffffffffffffffffffffffffffffffffffff168273ffffffffffffffffffffffffffffffffffffffff1614155b1561213b5760006120178461162d565b9050600073ffffffffffffffffffffffffffffffffffffffff168373ffffffffffffffffffffffffffffffffffffffff161415801561208257508273ffffffffffffffffffffffffffffffffffffffff168173ffffffffffffffffffffffffffffffffffffffff1614155b801561209557506120938184611299565b155b156120d757826040517fa9fbf51f0000000000000000000000000000000000000000000000000000000081526004016120ce9190612690565b60405180910390fd5b811561213957838573ffffffffffffffffffffffffffffffffffffffff168273ffffffffffffffffffffffffffffffffffffffff167f8c5be1e5ebec7d5bd14f71427d1e84f3dd0314c0f7b2291e5b200ac8c7c3b92560405160405180910390a45b505b836004600085815260200190815260200160002060006101000a81548173ffffffffffffffffffffffffffffffffffffffff021916908373ffffffffffffffffffffffffffffffffffffffff16021790555050505050565b61219e8383836123aa565b61225257600073ffffffffffffffffffffffffffffffffffffffff168373ffffffffffffffffffffffffffffffffffffffff160361221357806040517f7e27328900000000000000000000000000000000000000000000000000000000815260040161220a91906127a6565b60405180910390fd5b81816040517f177e802f0000000000000000000000000000000000000000000000000000000081526004016122499291906133aa565b60405180910390fd5b505050565b600080600090507a184f03e93ff9f4daa797ed6e38ed64bf6a1f01000000000000000083106122b5577a184f03e93ff9f4daa797ed6e38ed64bf6a1f01000000000000000083816122ab576122aa613267565b5b0492506040810190505b6d04ee2d6d415b85acef810000000083106122f2576d04ee2d6d415b85acef810000000083816122e8576122e7613267565b5b0492506020810190505b662386f26fc10000831061232157662386f26fc10000838161231757612316613267565b5b0492506010810190505b6305f5e100831061234a576305f5e10083816123405761233f613267565b5b0492506008810190505b612710831061236f57612710838161236557612364613267565b5b0492506004810190505b60648310612392576064838161238857612387613267565b5b0492506002810190505b600a83106123a1576001810190505b80915050919050565b60008073ffffffffffffffffffffffffffffffffffffffff168373ffffffffffffffffffffffffffffffffffffffff161415801561246257508273ffffffffffffffffffffffffffffffffffffffff168473ffffffffffffffffffffffffffffffffffffffff16148061242357506124228484611299565b5b8061246157508273ffffffffffffffffffffffffffffffffffffffff16612449836116b5565b73ffffffffffffffffffffffffffffffffffffffff16145b5b90509392505050565b6000604051905090565b600080fd5b600080fd5b60007fffffffff0000000000000000000000000000000000000000000000000000000082169050919050565b6124b48161247f565b81146124bf57600080fd5b50565b6000813590506124d1816124ab565b92915050565b6000602082840312156124ed576124ec612475565b5b60006124fb848285016124c2565b91505092915050565b60008115159050919050565b61251981612504565b82525050565b60006020820190506125346000830184612510565b92915050565b600081519050919050565b600082825260208201905092915050565b60005b83811015612574578082015181840152602081019050612559565b60008484015250505050565b6000601f19601f8301169050919050565b600061259c8261253a565b6125a68185612545565b93506125b6818560208601612556565b6125bf81612580565b840191505092915050565b600060208201905081810360008301526125e48184612591565b905092915050565b6000819050919050565b6125ff816125ec565b811461260a57600080fd5b50565b60008135905061261c816125f6565b92915050565b60006020828403121561263857612637612475565b5b60006126468482850161260d565b91505092915050565b600073ffffffffffffffffffffffffffffffffffffffff82169050919050565b600061267a8261264f565b9050919050565b61268a8161266f565b82525050565b60006020820190506126a56000830184612681565b92915050565b6126b48161266f565b81146126bf57600080fd5b50565b6000813590506126d1816126ab565b92915050565b600080604083850312156126ee576126ed612475565b5b60006126fc858286016126c2565b925050602061270d8582860161260d565b9150509250929050565b6000806000606084860312156127305761272f612475565b5b600061273e868287016126c2565b935050602061274f868287016126c2565b92505060406127608682870161260d565b9150509250925092565b6000602082840312156127805761277f612475565b5b600061278e848285016126c2565b91505092915050565b6127a0816125ec565b82525050565b60006020820190506127bb6000830184612797565b92915050565b600081519050919050565b600082825260208201905092915050565b6000819050602082019050919050565b6127f6816125ec565b82525050565b600061280883836127ed565b60208301905092915050565b6000602082019050919050565b600061282c826127c1565b61283681856127cc565b9350612841836127dd565b8060005b8381101561287257815161285988826127fc565b975061286483612814565b925050600181019050612845565b5085935050505092915050565b600060208201905081810360008301526128998184612821565b905092915050565b600080604083850312156128b8576128b7612475565b5b60006128c68582860161260d565b92505060206128d78582860161260d565b9150509250929050565b6128ea81612504565b81146128f557600080fd5b50565b600081359050612907816128e1565b92915050565b6000806040838503121561292457612923612475565b5b6000612932858286016126c2565b9250506020612943858286016128f8565b9150509250929050565b600081519050919050565b600082825260208201905092915050565b6000819050602082019050919050565b6129828161266f565b82525050565b60006129948383612979565b60208301905092915050565b6000602082019050919050565b60006129b88261294d565b6129c28185612958565b93506129cd83612969565b8060005b838110156129fe5781516129e58882612988565b97506129f0836129a0565b9250506001810190506129d1565b5085935050505092915050565b60006060820190508181036000830152612a258186612821565b90508181036020830152612a398185612821565b90508181036040830152612a4d81846129ad565b9050949350505050565b600080fd5b600080fd5b7f4e487b7100000000000000000000000000000000000000000000000000000000600052604160045260246000fd5b612a9982612580565b810181811067ffffffffffffffff82111715612ab857612ab7612a61565b5b80604052505050565b6000612acb61246b565b9050612ad78282612a90565b919050565b600067ffffffffffffffff821115612af757612af6612a61565b5b612b0082612580565b9050602081019050919050565b82818337600083830152505050565b6000612b2f612b2a84612adc565b612ac1565b905082815260208101848484011115612b4b57612b4a612a5c565b5b612b56848285612b0d565b509392505050565b600082601f830112612b7357612b72612a57565b5b8135612b83848260208601612b1c565b91505092915050565b60008060008060808587031215612ba657612ba5612475565b5b6000612bb4878288016126c2565b9450506020612bc5878288016126c2565b9350506040612bd68782880161260d565b925050606085013567ffffffffffffffff811115612bf757612bf661247a565b5b612c0387828801612b5e565b91505092959194509250565b6000608082019050612c246000830187612797565b612c316020830186612681565b612c3e6040830185612797565b612c4b6060830184612510565b95945050505050565b60008060408385031215612c6b57612c6a612475565b5b6000612c79858286016126c2565b9250506020612c8a858286016126c2565b9150509250929050565b7f4e487b7100000000000000000000000000000000000000000000000000000000600052602260045260246000fd5b60006002820490506001821680612cdb57607f821691505b602082108103612cee57612ced612c94565b5b50919050565b6000606082019050612d096000830186612681565b612d166020830185612797565b612d236040830184612681565b949350505050565b7f4f6e6c79207468652073656c6c65722063616e2064656c69737420746865206860008201527f6f75736500000000000000000000000000000000000000000000000000000000602082015250565b6000612d87602483612545565b9150612d9282612d2b565b604082019050919050565b60006020820190508181036000830152612db681612d7a565b9050919050565b7f4e487b7100000000000000000000000000000000000000000000000000000000600052603260045260246000fd5b7f4e487b7100000000000000000000000000000000000000000000000000000000600052601160045260246000fd5b6000612e26826125ec565b91507fffffffffffffffffffffffffffffffffffffffffffffffffffffffffffffffff8203612e5857612e57612dec565b5b600182019050919050565b7f4f6e6c7920706c6174666f726d206f776e65722063616e20736574206665652060008201527f7261746500000000000000000000000000000000000000000000000000000000602082015250565b6000612ebf602483612545565b9150612eca82612e63565b604082019050919050565b60006020820190508181036000830152612eee81612eb2565b9050919050565b7f4f6e6c7920706c6174666f726d206f776e65722063616e206d696e7400000000600082015250565b6000612f2b601c83612545565b9150612f3682612ef5565b602082019050919050565b60006020820190508181036000830152612f5a81612f1e565b9050919050565b6000612f6c826125ec565b9150612f77836125ec565b9250828201905080821115612f8f57612f8e612dec565b5b92915050565b7f4f6e6c7920746865206f776e65722063616e206c6973742074686520686f757360008201527f6500000000000000000000000000000000000000000000000000000000000000602082015250565b6000612ff1602183612545565b9150612ffc82612f95565b604082019050919050565b6000602082019050818103600083015261302081612fe4565b9050919050565b7f486f75736520697320616c7265616479206c697374656420666f722073616c65600082015250565b600061305d602083612545565b915061306882613027565b602082019050919050565b6000602082019050818103600083015261308c81613050565b9050919050565b600081905092915050565b60006130a98261253a565b6130b38185613093565b93506130c3818560208601612556565b80840191505092915050565b60006130db828561309e565b91506130e7828461309e565b91508190509392505050565b7f486f757365206973206e6f7420666f722073616c650000000000000000000000600082015250565b6000613129601583612545565b9150613134826130f3565b602082019050919050565b600060208201905081810360008301526131588161311c565b9050919050565b7f496e73756666696369656e742066756e647320746f206275792074686520686f60008201527f7573650000000000000000000000000000000000000000000000000000000000602082015250565b60006131bb602383612545565b91506131c68261315f565b604082019050919050565b600060208201905081810360008301526131ea816131ae565b9050919050565b60006131fc826125ec565b9150613207836125ec565b925082820390508181111561321f5761321e612dec565b5b92915050565b6000613230826125ec565b915061323b836125ec565b9250828202613249816125ec565b915082820484148315176132605761325f612dec565b5b5092915050565b7f4e487b7100000000000000000000000000000000000000000000000000000000600052601260045260246000fd5b60006132a1826125ec565b91506132ac836125ec565b9250826132bc576132bb613267565b5b828204905092915050565b600081519050919050565b600082825260208201905092915050565b60006132ee826132c7565b6132f881856132d2565b9350613308818560208601612556565b61331181612580565b840191505092915050565b60006080820190506133316000830187612681565b61333e6020830186612681565b61334b6040830185612797565b818103606083015261335d81846132e3565b905095945050505050565b600081519050613377816124ab565b92915050565b60006020828403121561339357613392612475565b5b60006133a184828501613368565b91505092915050565b60006040820190506133bf6000830185612681565b6133cc6020830184612797565b939250505056fea2646970667358221220a9291890f7b7ae4c5996b844dab9a65f7c5a34a5e38394e338d8d8e48b3db12764736f6c63430008140033",
  "linkReferences": {},
  "deployedLinkReferences": {}
}